:1000000012C024C023C022C021C020C01FC01EC0F7
:100010001DC01CC01BC01AC019C018C017C016C014
:1000200015C014C013C011241FBECFE5D4E0DEBF3D
:10003000CDBF10E0A0E6B0E0E6EDF1E002C0059033
:100040000D92AE36B107D9F773D0C3C0D9CF82BBFA
:1000500092B39B7F92BB92B3986092BB90E19A95CA
:10006000F1F700C092B3977F92BB90E19A95F1F7B8
:1000700000C08295807F82BB82B38B7F82BB82B3BC
:10008000886082BB80E18A95F1F700C082B3877FE8
:1000900082BB90E19A95F1F700C0089582BB92B3BC
:1000A000946092BB92B3986092BB90E19A95F1F7FD
:1000B00000C092B3977F92BB90E19A95F1F700C090
:1000C0008295807F82BB82B3846082BB82B388606A
:1000D00082BB80E18A95F1F700C082B3877F82BB43
:1000E00090E19A95F1F700C008958068B0DF089517
:1000F000805C8068ACDF08951F93CF93DF93EC01A1
:1001000010E006C0FE01E80FF91F8081C7DF1F5F06
:10011000812F90E0FE0101900020E9F73197EC1B60
:10012000FD0B8E179F0770F3DF91CF911F910895FC
:100130008CEF81BB12BA85EA9EE00197F1F700C00F
:10014000000080E384DF81EE94E00197F1F700C0C6
:10015000000080E37CDF91E29A95F1F7000080E3F4
:1001600076DF89EF90E00197F1F700C0000082E0B0
:100170006EDF83EF91E00197F1F700C0000088E2A5
:1001800066DF89EF90E00197F1F700C000008CE096
:100190005EDF89EF90E00197F1F700C0000081E099
:1001A00056DF83EF91E00197F1F700C0000086E091
:1001B0004EDF89EF90E00197F1F700C0000088E082
:1001C00094DF81E26BDF82E093DF80E690E094DFF2
:0601D000FFCFF894FFCF01
:0E01D6005072696E7420737472696E67000057
:00000001FF
