:1000000012C019C018C017C016C015C014C013C044
:1000100012C011C010C00FC00EC00DC00CC00BC06C
:100020000AC009C008C011241FBECFE5D4E0DEBF5E
:10003000CDBF38D097C0E4CF20E030E021C0482FBA
:1000400050E0022E02C0559547950A94E2F740FF12
:1000500004C092B3916092BB03C092B39E7F92BBE7
:1000600092B3926092BB93E09A95F1F7000092B33D
:100070009D7F92BB93E09A95F1F700002F5F3F4F71
:1000800028303105E4F282B3846082BB83E08A9534
:10009000F1F7000082B38B7F82BB93E09A95F1F772
:1000A000000008958FEF81BB82B3887F82BB82B34B
:1000B000886082BBC0E017C081E00C2E01C0880FB1
:1000C0000A94EAF7B9DF2FE58AEE90E021508040EC
:1000D0009040E1F700C0000082B3877F82BB82B30B
:1000E000886082BBCF5FC83038F3C0E019C081E0C0
:1000F0000C2E01C0880F0A94EAF79EDF80E09CDF97
:100100002FE58AEE90E0215080409040E1F700C05A
:10011000000082B3877F82BB82B3886082BBCF5FDF
:10012000C83028F3C0E01BC081E00C2E01C0880F4E
:100130000A94EAF781DF80E07FDF80E07DDF2FE552
:100140008AEE90E0215080409040E1F700C000002E
:1001500082B3877F82BB82B3886082BBCF5FC830A7
:0801600018F3A8CFF894FFCFBB
:00000001FF
