S01100005350495F536C6176652E73726563CD
S113000012C02CC02BC02AC029C028C027C026C0BB
S113001025C093C026C122C021C020C01FC01EC05D
S11300201DC01CC01BC011241FBECFE5D4E0DEBF21
S1130030CDBF10E0A0E6B0E0E8EDF2E002C005902C
S11300400D92A437B107D9F720E0A4E7B0E001C0CE
S11300501D92A038B207E1F71AD13CC1D1CFCF939A
S1130060DF93AC01EC01D695C795D695C795D69587
S1130070C7959E01A5ECB0E221D1FC01F295E29571
S1130080EF70EF27FF70EF27F0937D00E0937C0083
S113009028EE33E0E29FC001E39F900DF29F900DA4
S11300A011249A01281B390B3695279536952795E7
S11300B0ABE7B4E103D19695879590937B00809349
S11300C07A009A013695279536952795F7D09C01A5
S11300D03695279564E6629FC001639F900D1124B5
S11300E09A01281B390BADECBCECE8D096958795AA
S11300F09695879596958795909379008093780047
S11301009A01DCD0969587959695879596958795CF
S11301109C01220F331F880F991F880F991F880F86
S1130120991F820F931F9A01281B390B3093770074
S113013020937600DF91CF9108951F920F920FB60E
S11301400F9211248F939F93EF93FF9380917400E8
S1130150909175008130910589F485B38E6085BBDB
S113016085B38E7F85BBE0917C00F0917D00EE0F1E
S1130170FF1FE05AFF4F808182BB3AC08230910555
S113018089F485B38D6085BB85B38D7F85BBE09194
S11301907A00F0917B00EE0FFF1FE05AFF4F808141
S11301A082BB26C08330910589F485B38B6085BBFF
S11301B085B38B7F85BBE0917800F0917900EE0FD9
S11301C0FF1FE05AFF4F808182BB12C0049781F465
S11301D085B3876085BB85B3877F85BBE091760057
S11301E0F0917700EE0FFF1FE05AFF4F808182BB32
S11301F0809174009091750001969093750080939E
S11302007400099734F081E090E090937500809336
S11302107400FF91EF919F918F910F900FBE0F90FB
S11302201F90189587B3877D87BB87B3806187BB91
S11302308DB180688DB98DB180648DB98DB18F7E9B
S11302408DB98DB188608DB98DB184608DB98DB152
S11302508F7D8DB987B38B7F87BB88B3846088BB60
S113026008951F920F920FB60F9211248F939F93AC
S1130270779BFECF8FB190E090937F0080937E00B8
S11302809F918F910F900FBE0F901F9018958FEF35
S113029081BB12BA84B38F6084BB85B38F6085BB86
S11302A082E083BF12BE89B7816089BFBBDF7894C7
S11302B080917E0090917F00D2DEFACFA29FB001A0
S11302C0B39FC001A39F01D0B29F700D811D112463
S10B02D0911D0895F894FFCF7D
S11302D83F0006005B004F0066006D007D000700CC
S10702E87F006F0020
S9030000FC
