:1000000012C021C020C01FC01EC01DC01CC01BC00C
:100010001AC019C03EC017C016C015C014C013C006
:1000200012C011C010C011241FBECFE5D4E0DEBF46
:10003000CDBF20E0A0E6B0E001C01D92A236B2071D
:10004000E1F738D084C0DCCF87B38C6287BB88B33C
:10005000846088BB87B38F7E87BB8DB180688DB984
:100060008DB180648DB98DB180618DB98EB18E7F77
:100070008EB98DB18D7F8DB98DB181608DB98DB106
:1000800088608DB98DB184608DB98DB18F7D8DB94A
:1000900008951F920F920FB60F9211248F93779BA2
:1000A000FECF88B3846088BB8F910F900FBE0F90F6
:1000B0001F90189584B38C7F84BB85B3836085BB08
:1000C000C3DF7894989921C080916000909161007D
:1000D000019690936100809360008436910534F01E
:1000E00084E690E0909361008093600088B38B7FFA
:1000F00088BB809160008FB92FE58AEE90E0215097
:1001000080409040E1F700C000009999DBCF8091DA
:10011000600090916100019790936100809360006E
:100120001816190624F0109261001092600088B32E
:100130008B7F88BB809160008FB92FE58AEE90E0BD
:10014000215080409040E1F700C00000BBCFF89400
:02015000FFCFDF
:00000001FF
