:1000000012C019C018C017C016C015C014C013C044
:1000100013C011C010C00FC00EC00DC00CC00BC06B
:100020000AC009C008C011241FBECFE5D4E0DEBF5E
:10003000CDBF49D082C0E4CF1F920F920FB60F926E
:1000400011242F938F939F931EBC82B3816082BB38
:100050002FE38DE093E0215080409040E1F700C015
:10006000000082B38E7F82BB2FE38DE093E02150AE
:1000700080409040E1F700C0000082B3816082BB05
:100080002FE38DE093E0215080409040E1F700C0E5
:10009000000082B38E7F82BB2FE38DE093E021507E
:1000A00080409040E1F700C0000083E08EBD88E80A
:1000B00093E19DBD8CBD9F918F912F910F900FBEAD
:1000C0000F901F9018958FE384BB15BA81B38160A0
:1000D00081BB82B38E7F82BB89B7846089BF83E096
:1000E0008EBD1DBC1CBC8FB780688FBF20E030E088
:1000F00016C045B381E090E0022E02C0880F991F20
:100100000A94E2F7842B85BB4FE58AEE90E04150DC
:1001100080409040E1F700C000002F5F3F4F263045
:1001200031053CF315BA2FE54AEE80E021504040FE
:0E0130008040E1F700C00000D9CFF894FFCF67
:00000001FF
