:1000000012C019C018C017C016C015C014C013C044
:1000100012C011C010C00FC00EC00DC00CC00BC06C
:100020000AC009C008C011241FBECFE5D4E0DEBF5E
:10003000CDBF02D051C0E4CF87B3876087BB88B300
:10004000887F88BB84B38D7F84BB86B1806886B986
:1000500086B1806286B986B18B7F86B986B18360AE
:1000600086B987B1806C87B987B18F7D87B987B131
:10007000817F87B987B1816087B986B1806486B98D
:10008000349BFECF84B195B18835924030F088B36F
:10009000816088BB88B3897F88BB84B195B1803388
:1000A000924058F084B195B18835924030F488B3CD
:1000B000826088BB88B38A7F88BB84B195B1803366
:1000C000924030F488B3846088BB88B38C7F88BB4F
:0C00D00086B1806186B9D4CFF894FFCFD0
:00000001FF
