:1000000012C024C023C022C021C020C01FC01EC0F7
:100010001DC01CC01BC01AC019C018C017C016C014
:1000200015C014C013C011241FBECFE5D4E0DEBF3D
:10003000CDBF10E0A0E6B0E0E2EFF0E002C0059036
:100040000D92AC36B107D9F710D051C0D9CF90BDC1
:1000500089B98BB182608BB988E18AB98EE880BD9D
:1000600008955D9BFECF8CB90895CF93DF93CDB7F4
:10007000DEB72C970FB6F894DEBF0FBECDBF8CE075
:1000800090E0E5DF84E5EDDF85E6EBDF83E7E9DFA0
:1000900084E7E7DF8DE0E5DF82EDE3DF85EEE1DF9A
:1000A00081EFDFDF82EFDDDF8DE0DBDF8CE0E0E69C
:1000B000F0E0DE01119601900D928A95E1F720E0C3
:1000C0005D9BFECF822F90E0DE011196FD01019035
:1000D0000020E9F73197EA1BFB0B8E179F0780F78B
:1000E000FD01E20FF11D80818CB92F5FE9CFF894FB
:0200F000FFCF40
:0C00F20048656C6C6F20576F726C6400E6
:00000001FF
