:1000000012C02CC02BC02AC029C028C027C026C0BF
:1000100025C046C023C022C021C020C01FC01EC0B2
:100020001DC01CC01BC011241FBECFE5D4E0DEBF25
:10003000CDBF10E0A0E6B0E0EEEEF5E002C0059026
:100040000D92A637B107D9F720E0A6E7B0E001C0CE
:100050001D92AF37B207E1F753D1C7C2D1CFCF93CB
:10006000DF939C0168EE73E099D2E7E7F0E07183DB
:100070006083C4E6D0E0BE0191D273836283C9017C
:10008000BE018CD2CAE0D0E0BE0188D27583648301
:10009000C901BE0183D297838683DF91CF910895F2
:1000A0001F920F920FB60F9211248F93EF93FF932D
:1000B000809160008130B9F485B38B7F85BB85B3B7
:1000C000806285BB80917600882319F080E482BB32
:1000D0000AC0E0917700F0917800EE0FFF1FEF5912
:1000E000FF4F808182BB80916000823081F485B3B4
:1000F000877F85BB85B3846085BBE0917900F091F3
:100100007A00EE0FFF1FEF59FF4F808182BB809175
:100110006000833099F485B38F7E85BB85B388609A
:1001200085BBE0917B00F0917C00EE0FFF1FEF5943
:10013000FF4F808182BB82B3806882BB8091600068
:10014000843091F485B38F7D85BB85B3806185BB99
:10015000E0917D00F0917E00EE0FFF1FEF59FF4F01
:10016000808182BB10926000809160008F5F8093DD
:100170006000FF91EF918F910F900FBE0F901F9035
:100180001895F89484B3826084BB85B38D7F85BB5A
:1001900086EA8A95F1F700C084B38D7F84BB98E22C
:1001A0009A95F1F7999902C081E001C080E07894B6
:1001B0009EE79A95F1F700C0089590E025C0282F9A
:1001C00030E0092E02C0359527950A94E2F720FF0A
:1001D0000EC0F89424B3226024BB00C024B32D7F4A
:1001E00024BB23E12A95F1F7000078940CC0F89421
:1001F00024B3226024BB25E12A95F1F700C024B383
:100200002D7F24BB78949F5F9830C8F2089590E0CA
:1002100080E01EC0F89424B3226024BB00C024B345
:100220002D7F24BB24E02A95F1F70000999B02C0A2
:1002300021E001C020E03FE03A95F1F7789430E00A
:10024000092E02C0220F331F0A94E2F7822B9F5F10
:10025000983000F390E00895CF93DF9392DF8823E6
:10026000E1F08CECAADF84E4A8DF2FEE89E492E0D1
:10027000215080409040E1F700C0000082DF8CEC0C
:100280009CDF8EEB9ADFC3DFEC01C1DF20E030E0C2
:10029000382FCE01822B932B02C080E090E0DF91BB
:1002A000CF910895811528E09207B8F06627772747
:1002B000681B790B80E090E080D020E030E040E8DF
:1002C0005DE3E1D020E030E040E251E4DCD021E029
:1002D0002093760041D0CB010895BC0180E090E0EE
:1002E0006CD020E030E040E85DE3CDD020E030E0AD
:1002F00040E251E4C8D0109276002ED0CB01089590
:1003000084B38C6384BB8FEF81BB85B38C6385BB67
:1003100012BA87B3816087BB83B7836083BF83B71B
:100320008B7F83BF89B7816089BF12BE789494DFC9
:10033000B9DF95DE91DFB6DF8D32914024F088B3CE
:100340008E7F88BBF4CF88DFADDF843091407CF7AF
:1003500088B3816088BBEBCF04D06894B1118DC0A5
:10036000089570D088F09F5790F0B92F9927B75112
:10037000A0F0D1F0660F771F881F991F1AF0BA9569
:10038000C9F712C0B13081F077D0B1E0089574C0E0
:10039000672F782F8827B85F39F0B93FCCF386955F
:1003A00077956795B395D9F73EF4909580957095BC
:1003B00061957F4F8F4F9F4F0895E89409C097FB39
:1003C0003EF490958095709561957F4F8F4F9F4F2C
:1003D0009923A9F0F92F96E9BB279395F695879570
:1003E00077956795B795F111F8CFFAF4BB0F11F433
:1003F00060FF1BC06F5F7F4F8F4F9F4F16C08823DA
:1004000011F096E911C0772321F09EE8872F762F0F
:1004100005C0662371F096E8862F70E060E02AF050
:100420009A95660F771F881FDAF7880F969587953C
:1004300097F9089557FD9058440F551F59F05F3FA5
:1004400071F04795880F97FB991F61F09F3F79F0F6
:1004500087950895121613061406551FF2CF469578
:10046000F1DF08C0161617061806991FF1CF8695FA
:100470007105610508940895E894BB2766277727DE
:10048000CB0197F908950BD078C069D028F06ED0D1
:1004900018F0952309F05AC05FC01124EECFCADFCF
:1004A000A0F3959FD1F3950F50E0551F629FF00187
:1004B000729FBB27F00DB11D639FAA27F00DB11DE0
:1004C000AA1F649F6627B00DA11D661F829F222769
:1004D000B00DA11D621F739FB00DA11D621F839FF0
:1004E000A00D611D221F749F3327A00D611D231FC6
:1004F000849F600D211D822F762F6A2F11249F5714
:1005000050408AF0E1F088234AF0EE0FFF1FBB1F36
:10051000661F771F881F91505040A9F79E3F5105D5
:1005200070F014C0AACF5F3FECF3983EDCF38695E1
:1005300077956795B795F795E7959F5FC1F7FE2B80
:10054000880F911D9695879597F9089597F99F675C
:1005500080E870E060E008959FEF80EC089500244B
:100560000A941616170618060906089500240A9418
:1005700012161306140605060895092E0394000C9E
:1005800011F4882352F0BB0F40F4BF2B11F460FF2D
:1005900004C06F5F7F4F8F4F9F4F089597FB072ECB
:1005A00016F4009406D077FD08D00BD007FC05D0D8
:1005B0003EF4909581959F4F0895709561957F4F7A
:1005C0000895AA1BBB1B51E107C0AA1FBB1FA6179A
:1005D000B70710F0A61BB70B881F991F5A95A9F7EC
:0E05E00080959095BC01CD010895F894FFCF51
:1005EE00013F0006005B004F0066006D007D0007B6
:0605FE00007F006F000009
:00000001FF
