S01D000031325F44796E616D696320696E6469636174696F6E2E737265633E
S113000012C02CC02BC02AC029C028C027C026C0BB
S113001025C024C023C022C021C020C01FC01EC0D0
S11300201DC01CC01BC011241FBECFE5D4E0DEBF21
S1130030CDBF10E0A0E6B0E0ECE9F1E002C005902D
S11300400D92A437B107D9F720E0A4E7B0E001C0CE
S11300501D92AC37B207E1F723D09EC0D1CFCF9326
S1130060DF939C0168EE73E070D0E4E7F0E0718305
S11300706083C4E6D0E0BE0168D073836283C901A3
S1130080BE0163D0CAE0D0E0BE015FD07583648353
S1130090C901BE015AD097838683DF91CF91089519
S11300A0CF93DF93CDB7DEB764970FB6F894DEBF76
S11300B00FBECDBF9FEF91BB8FE087BB92BB88BBC8
S11300C084E1E0E6F0E0DE01119601900D928A955C
S11300D0E1F787ED91E1C3DF81E088BBE091740033
S11300E0F0917500EE0FFF1F21E030E02C0F3D1F53
S11300F0E20FF31F808182BB87E893E10197F1F758
S113010000C0000081E090E01CC028B3220F28BB8F
S1130110FC01EE0FFF1FEC58FF4F0190F081E02D22
S1130120EE0FFF1F21E030E02C0F3D1FE20FF31F05
S1130130208122BBE7E8F3E13197F1F700C000002A
S11301400196843091050CF3C4CF97FB072E16F467
S1130150009406D077FD08D00BD007FC05D03EF400
S1130160909581959F4F0895709561957F4F08955F
S1130170AA1BBB1B51E107C0AA1FBB1FA617B707C9
S113018010F0A61BB70B881F991F5A95A9F78095E5
S10F01909095BC01CD010895F894FFCFB8
S113019C3F0006005B004F0066006D007D00070009
S10701AC7F006F005D
S9030000FC
