:020000040800F2
:10000000C0060020890100089D0E0008950E00081A
:10001000990E000891020008B10E000800000000CF
:10002000000000000000000000000000A50E000815
:100030009502000800000000A10E0008A90E0008AB
:10004000A3010008A3010008A3010008A301000800
:10005000A3010008A3010008A3010008A3010008F0
:10006000A3010008A3010008A3010008A3010008E0
:10007000A3010008A3010008A3010008A3010008D0
:10008000A3010008A3010008A3010008A3010008C0
:10009000A3010008A3010008A3010008A3010008B0
:1000A000A3010008A3010008A3010008A3010008A0
:1000B000A3010008A3010008A3010008A301000890
:1000C000A3010008A3010008A3010008A301000880
:1000D000A3010008A3010008A3010008A301000870
:1000E000A3010008A3010008A301000800F002F822
:1000F00000F03AF80AA090E8000C82448344AAF188
:100100000107DA4501D100F02FF8AFF2090EBAE885
:100110000F0013F0010F18BFFB1A43F0010318473B
:10012000000F0000200F0000103A24BF78C878C1EB
:10013000FAD8520724BF30C830C144BF04680C60ED
:10014000704700000023002400250026103A28BF35
:1001500078C1FBD8520728BF30C148BF0B60704739
:100160001FB51FBD10B510BD00F058F81146FFF7C0
:10017000F7FF00F09FFE00F076F803B4FFF7F2FF00
:1001800003BC00F07DF8000009488047094800479B
:10019000FEE7FEE7FEE7FEE7FEE7FEE7FEE7FEE737
:1001A000FEE7FEE704480549054A064B7047000094
:1001B000AD0E0008ED000008C0000020C0060020C1
:1001C000C0020020C00200204FF0000200B513461C
:1001D00094469646203922BFA0E80C50A0E80C5067
:1001E000B1F12001BFF4F7AF090728BFA0E80C5018
:1001F00048BF0CC05DF804EB890028BF40F8042B11
:1002000008BF704748BF20F8022B11F0804F18BF7D
:1002100000F8012B7047704770477047754600F033
:100220002BF8AE4605006946534620F00700854688
:1002300018B020B5FFF7B6FFBDE820404FF000062C
:100240004FF000074FF000084FF0000BAC46ACE851
:10025000C009ACE8C009ACE8C009ACE8C00921F0AD
:1002600007018D46704710B50446AFF30080204665
:10027000BDE81040FFF781BF004870471000002024
:1002800001491820ABBEFEE72600020070470000BF
:10029000FEE70000704700002DE9F04F82B041F208
:1002A0000042C4F201020E680423904208BF0323F7
:1002B000002E009300F0F68040F20C4E4FF6FF7CCB
:1002C000C4F2010E00220124C1F2100C4FF0000A0A
:1002D0004FF0000943E000BF012502F00C040F2796
:1002E000A7402BEA070705FA04F43C4343F82640ED
:1002F000D1F804B040F20045C4F201055FEACB3307
:100300002B6854BF23EA080343EA08032B606B6899
:100310005FEA8B3454BF23EA080343EA08036B60A7
:100320005FEACB24AB6854BF23EA080343EA08031F
:100330005FEA8B24AB60DEF800304FF0010454BF5D
:1003400023EA080343EA0803CEF800300E680AF1F6
:10035000010A36FA0AF302F1040200F0A38004FA5B
:100360000AF816EA080FF1D04B68634512DC122B2D
:1003700056D8DFE803F0350B4549555555555555C9
:10038000555555555555554D510000BFD1F80C9058
:1003900046E000BF4FF6FF77C1F22107BB420FDCFA
:1003A0000027C1F21107BB421AD00027C1F2120781
:1003B000BB4215D00027C1F22107BB4210D02FE06D
:1003C0000027C1F22207BB420AD00027C1F2310741
:1003D000BB4205D00027C1F23207BB4220D100BF8B
:1003E0008B684BB1012B14BFC0F81480C0F810808B
:1003F0004FF0080914E000BF4FF0040910E000BFFF
:10040000CB6803F108090BE04FF0000908E000BFDA
:10041000CB6803F1040903E0CB6803F10C0900BFCA
:1004200013460546BAF1080F24BF203B04352E6859
:100430000F279F40BE4309FA03F333432B60CB7968
:10044000DB067FF583AF41F21804C4F2020423688F
:100450004FEA9A0643F001032360236840F6000444
:1004600003F001030193019B40F20043C4F2010336
:10047000A3F57E7353F826B0C4F20104A0420FD056
:1004800040F60044C4F20104A0423FF425AF41F21B
:100490000004C4F20104009DA04208BF02251CE72D
:1004A00000251AE702B0BDE8F08F0000002A08BF5F
:1004B000090401617047000040F2B800C2F2000078
:1004C0000068704740F2000040F2B801C2F200003C
:1004D000C2F2000100780A6810440860704700000A
:1004E00080B542F20000C4F20200016841F0100140
:1004F0000160032000F07AF80F2000F005F800F00A
:1005000027F8002080BD000070B540F20006C2F25E
:10051000000640F208013278C2F200014FF47A730B
:100520000968B3FBF2F20446B1FBF2F1084600F0B1
:100530004FFB0F2C4FF0010508D838B94FF0FF30B2
:1005400021460022002500F025F87460284670BD81
:1005500082B041F21800C4F202000168022241F0A8
:1005600001010160016801F00101019101994168F7
:1005700041F080514160406800F080500090009848
:100580000420C4F20100016862F31A61016002B044
:100590007047000010B54EF60C5CCEF2000CDCF893
:1005A0000030C3F3022E8EF00704042C28BF04246D
:1005B000BEF103034FF0FF3E0EFA04F438BF0023F0
:1005C000A14399400EFA03F39A43114300F00F023E
:1005D000043A624409010C3200F16043B0F1FF3F7C
:1005E000C8BF03F56442117010BD00004EF60C51F7
:1005F000CEF200010A684FF6FF031A4060F30A22A8
:1006000042F0806040F0FD70086070472DE9F043D3
:1006100081B0002800F0858042F20008C4F2020890
:100620000446D8F800000D4600F0070088420CD2BE
:10063000D8F8000020F007002843C8F80000D8F8D8
:10064000000000F00700A8426BD1206841F20409C5
:100650008107C4F2020917D5410705D5D9F8001062
:1006600041F4E061C9F80010010705D5D9F8001080
:1006700041F46051C9F80010D9F80010A26821F0C7
:10068000F0011143C9F80010C00741D1D8F80000AB
:1006900000F00700A8420CD9D8F8000020F00700AD
:1006A0002843C8F80000D8F8000000F00700A8426E
:1006B00037D12068410707D5D9F80010E26821F446
:1006C000E0611143C9F80010000708D5D9F800000F
:1006D000216920F4605040EAC100C9F80000D9F84F
:1006E000002002F00C00082841F20020C0F27A003D
:1006F00050D141F20E03C2F38341C0F60003595CAE
:10070000D2033BD440F60010C0F23D00484341E024
:10071000606802280AD001282AD159F8041C8903EC
:1007200008D4012001B0BDE8F08300BF59F8041CD3
:100730008901F6D5D9F8001021F003010843C9F862
:100740000000FFF7B9FE064641F28837D9F80000ED
:10075000616800F00C00B0EB810F97D0FFF7ACFEA2
:10076000801BB842F2D9032001B0BDE8F08300BF7E
:1007700059F8041C8907D4D5DCE700BFD9F800205C
:1007800040F6F473C2F34042C0F600039A5C48435B
:10079000B0FBF2F0D9F8001040F6F672C1F3031185
:1007A000C0F60002515C40F2080220FA01F140F26A
:1007B0000400C2F200000068C2F200021160FFF7FC
:1007C000A3FE002001B0BDE8F083000040F2080065
:1007D00041F20401C2F20000C4F20201006809689B
:1007E00041F20602C1F30221C0F60002515CC8408A
:1007F0007047000040F2080041F20401C2F200001C
:10080000C4F202010068096841F20602C1F3C22184
:10081000C0F60002515CC840704700002DE9F0416D
:1008200082B0002868D00446007841F20006C00774
:10083000C4F2020625D0706800F00C0004281BD01A
:10084000706800F00C00082802D17068C00313D44F
:100850006068002800F06881B0F5A02F00F07C816E
:10086000B0F5803F00F07C81306820F4803030604B
:10087000306820F4802076E13068800301D560681C
:10088000D0B32078800718D5706810F00C0F07D00F
:10089000706800F00C0008286ED17068C0036BD43B
:1008A0003068800702D52069012825D13068616948
:1008B00020F0F80040EAC1003060207800071FD423
:1008C0002078400732D4E56995B1706800F00C00DB
:1008D000082840F08F80012D0ED07068216A00F446
:1008E00080328A4208D1616A00F47010884203D1D4
:1008F000002002B0BDE8F081012002B0BDE8F08127
:10090000A069002862D00020C4F242200121C0F872
:100910008014FFF7D1FD0546706A800700F18C80D6
:10092000FFF7CAFD401B0228F6D92AE1F06910F052
:10093000805808D1F06940F08050F061F06900F013
:1009400080500090009847F20007C4F20007386812
:10095000C00529D4386840F480703860FFF7ACFDDA
:10096000054600BF3868C0051ED4FFF7A5FD401B33
:100970006428F7D905E100BF2069002840F2000093
:10098000C4F2422000F0828001210160FFF794FD53
:10099000054600BF306880073FF588AFFFF78CFD44
:1009A000401B0228F6D9ECE0E068002800F08080C7
:1009B000052800F09780012800F09880306A20F028
:1009C00001003062306A20F0040092E00020C4F29E
:1009D00042200021C0F88014FFF76EFD054600BFDD
:1009E000706A80077FF56CAFFFF766FD401B022839
:1009F000F6D9C6E00027C4F2422700203866FFF788
:100A00005BFD022D05460BD13068800140F1BE80B0
:100A1000FFF752FD401B02284FF00300F4D968E7AE
:100A2000306880017FF564AFFFF746FD401B022868
:100A30004FF00300F4D95CE740F20800C2F2000076
:100A4000006844F6D351C1F26201A0FB0101480ADB
:100A5000019000BF00BF0198411E002801913FF4A2
:100A60002FAF00BF0198411E002801913FF428AF2D
:100A700000BF0198411E002801913FF421AF00BF43
:100A80000198411E00280191E4D119E7002101607D
:100A9000FFF712FD054600BF306880077FF50DAFF8
:100AA000FFF70AFD401B02284FF00300F4D920E7AE
:100AB000306A20F001003062306A20F004003062B9
:100AC000FFF7FAFC054641F2883700BF306A80071D
:100AD00020D5FFF7F1FC401BB8424FF00300F5D9D9
:100AE00007E700BF306A40F004003062306A40F02F
:100AF00001003062FFF7E0FC054641F2883700BF95
:100B0000306A800706D4FFF7D7FC401BB842F7D9FC
:100B100037E000BFB8F1000F7FF4D5AEF06920F0E8
:100B20008050F061CFE600BF306820F48030306044
:100B3000306820F480203060FFF7BEFC054600BF1F
:100B4000306880037FF59DAEFFF7B6FC401B64283C
:100B50004FF00300F4D9CCE6306840F480203060D8
:100B6000306840F480303060FFF7A6FC054600BFD7
:100B7000306880033FF585AEFFF79EFC401B64287C
:100B8000F6D9032002B0BDE8F08100BF206AB0F5BD
:100B9000803F05D17168A26821F400311143716072
:100BA0007168626A21F47411104308437060012077
:100BB0003866FFF781FC0446306880013FF598AE47
:100BC000FFF77AFC001B02284FF00300F4D990E6EF
:100BD000411E0020B0EB116F1CBF012070474EF288
:100BE0001002CEF2000251604EF62351CEF2000107
:100BF000F0230B700721906011607047002804BF3C
:100C00000120704710B5044690F83D0028B9002037
:100C100084F83C00204600F05FF8242084F83D0072
:100C20002068D4E90212C36823F40053C360036947
:100C300023F440531A430261D4E904231143C268E8
:100C4000194341F20C639A431143C1604169A2699F
:100C500021F44071114343F60002C4F201029042B4
:100C6000416103D0FFF7B2FD02E000BFFFF7C2FD14
:100C70006268192148439100B0FBF1F048F21F511E
:100C8000C5F2EB11A0FB01235A096FF0630302FBCD
:100C90000300322303EB0010A0FB0101F02303EA61
:100CA0005113206803EB0212C1F343111144816018
:100CB000016921F490410161416921F02A014161FA
:100CC000C16841F40051C16000202021206484F8F3
:100CD0003D1084F83E1010BD70B586B040F600049B
:100CE000C4F20104006804F54051002688420496CD
:100CF00002D006B070BD00BF41F21800C4F202007D
:100D0000016802AD41F480410160016801F4804155
:100D100001910199016841F00401016000682946D0
:100D200000F00400019001984FF40070029002203E
:100D30000390032005902046FFF7AEFA4FF4806041
:100D4000CDE90206204629460496FFF7A5FA06B02B
:100D500070BD00002DE9F04381B0044690F83E00DC
:100D600020280DD10E4600294FF0010000F08E80A2
:100D70001746002A00F08A8094F83C00012803D12D
:100D8000022001B0BDE8F083012084F83C004FF060
:100D9000000922201D46C4F8409084F83E00C4F8A3
:100DA0003090FFF789FBA785E785A1680746B1F575
:100DB000805F0BD1206900281CBF30464E46B046EC
:100DC000064684F83C90E08D38B95BE04FF00008AF
:100DD00084F83C90E08D002854D005F101090BE027
:100DE000406800266FF35F2028F8020BE08D013881
:100DF000E085E08D002845D02068016889060DD483
:100E0000B9F1000F18D04DB3FFF756FBC11B206896
:100E1000A94223D801688906F6D500BF002EDFD08D
:100E2000A168B1F5805F15D009B9216991B1406819
:100E300000F07F000FE000BF01688906EED4016872
:100E400089065CBF01685FEA8161E7D401688906B1
:100E5000F2D5E3E7406806F8010BC7E7C16821F463
:100E6000D071C160416921F001014161202084F805
:100E70003D0084F83E00002084F83C00032001B0CF
:100E8000BDE8F083202084F83E00002001B0BDE8DA
:100E9000F0830000FEE70000FEE70000FEE7000030
:100EA0007047000070470000FFF70CBB7047000060
:100EB000FEE7000090B0FFF713FB06AC201D2421D5
:100EC000FFF782F90220069001200A9010200B9073
:100ED000002520460D95FFF7A1FC28B1EFF3108007
:100EE00072B600BFFEE700BF0F20CDE9010501A8E3
:100EF0000021CDE903550595FFF788FB20B1EFF3FD
:100F0000108072B6FEE700BF41F21800C4F2020082
:100F1000016840F6000841F0100101600168C4F268
:100F2000010801F0100106910699016808F50065B5
:100F300041F00401016000684FF4005100F004002A
:100F400006900698284600224FF400540027FFF729
:100F5000ADFA4046022100220226FFF7A7FA0694C6
:100F600006AC4FF0010928462146CDE907970996BE
:100F7000FFF792F940462146CDE90669CDE90876AA
:100F8000FFF78AF940F27006C2F2000608F54051F8
:100F9000304640F8041F4FF416510C22C0E90117E7
:100FA000C0E90377C0E90527C761FFF727FE28B12D
:100FB000EFF3108072B600BFFEE700BF371D0BE0F5
:100FC0000124404602212246FFF770FA28464FF4DA
:100FD00000512246FFF76AFA38463146012264235F
:100FE000FFF7B8FE3078302802D03128E8D0F3E798
:100FF0000024E6E7010200000000000000000102FA
:1010000003040607080900000000010203040203AC
:101010000405060708090A0B0C0D0E0F101000003E
:101020004010000800000020100000002801000807
:101030005010000810000020B00600004401000815
:1010400001000000100000000024F4000000000077
:04000005080000ED02
:00000001FF
