S0190000375F54696D65722D636F756E74657220302E73726563F7
S113000012C019C018C017C016C015C014C013C040
S113001012C011C010C00FC00EC00DC00CC00BC068
S11300200AC009C008C011241FBECFE5D4E0DEBF5A
S1130030CDBF02D023C0E4CF8FEF81BB12BA85E0DD
S113004083BF12BE80E090E002C080E090E022B75F
S113005022B72F3F11F4019612BE8431910524F486
S113006022B3216022BB06C0853191051CF022B366
S11300702E7F22BB8832910544F7E9CFF894FFCF55
S9030000FC
