:100000009DC0B7C0B6C0B5C0B4C0B3C0B2C0B1C067
:10001000B0C0AFC0AEC0ADC0ACC0ABC0AAC0A9C07C
:10002000A8C0A7C0A6C026C12AC136C13FC148C1C9
:1000300051C15AC163C16CC175C16E616E00696EF8
:10004000660000407A10F35A00A0724E18090010A2
:10005000A5D4E80000E87648170000E40B5402003D
:1000600000CA9A3B000000E1F50500008096980068
:10007000000040420F000000A08601000000102791
:1000800000000000E8030000000064000000000021
:100090000A00000000000100000000002C76D88853
:1000A000DC674F0823DFC1DFAE59E1B1B796E5E366
:1000B000E453C63AE651997696E8E6C28426EB897F
:1000C0008C9B62ED407C6FFCEFBC9C9F40F2BAA51C
:1000D0006FA5F490055A2AF75C936B6CF9676DC1B4
:1000E0001BFCE0E40D47FEF520E6B500D0ED902EB8
:1000F0000300943577050080841E080000204E0A16
:10010000000000C80C333333330F986E1283114153
:10011000EF8D2114893BE65516CFFEE6DB18D1841E
:100120004B381BF77C1D901DA4BBE4242032847245
:100130005E228100C9F124ECA1E53D2711241FBEF8
:10014000CFE5D4E0DEBFCDBF11E0A0E6B0E0E8E748
:10015000FEE002C005900D92A639B107D9F721E063
:10016000A6E9B1E001C01D92AC39B207E1F739D080
:1001700081C646CF5D9BFECF8CB980E090E00895AC
:100180005F9BFECF8CB190E0089590BD89B98BB193
:1001900082608BB988E18AB98EE880BD089584B306
:1001A000877F84BB86B1806886B986B1806286B954
:1001B00086B18B7F86B986B1836086B987B180644A
:1001C00087B987B18F7787B987B18F7D87B987B1B5
:1001D000837F87B987B1836087B986B1806486B928
:1001E00008958CE090E0D1DFDADF8FEF87BB18BA9B
:1001F000E6E9F1E080E690E0938382839183808357
:100200008EE690E0A9D580E890E0A6D588E890E059
:100210009F938F938ED589E990E09ED585EA90E0F3
:100220009BD586EB90E098D587EC90E095D588ED4E
:1002300090E092D589EE90E08FD58AEF90E08CD552
:100240008BE091E089D58CE191E086D58DE291E05B
:1002500083D58091960190919701F1D40F900F90E2
:10026000C0978A30910508F063C08D5E9F4F8F93D1
:100270009F93089518BA8AE391E06ED5C1CFB09BE1
:1002800004C088B38E7F88BB03C088B3816088BBFD
:1002900089E491E061D5B4CFB19B04C088B38D7F70
:1002A00088BBAECF88B3826088BBAACFB29B04C0A4
:1002B00088B38B7F88BBA4CF88B3846088BBA0CF72
:1002C000B39B04C088B3877F88BB9ACF88B388600C
:1002D00088BB96CFB49B04C088B38F7E88BB90CF79
:1002E00088B3806188BB8CCFB59B04C088B38F7DF9
:1002F00088BB86CF88B3806288BB82CFB69B04C0A0
:1003000088B38F7B88BB7CCF88B3806488BB78CF71
:10031000B79B04C088B38F7788BB72CF88B38068DF
:1003200088BB6ECF8FEF88BB88E591E015D568CF8D
:1003300087E691E011D564CFA0E1B0E0E1EAF1E019
:1003400059C37C011B016A01FC011782168283815B
:1003500081FF2AC39E012F5F3F4F3901F70193812F
:10036000F10193FD859193FF81911F01882309F489
:1003700017C3853239F493FD859193FF81911F0155
:10038000853231F4B70190E098D456016501E6CF8B
:1003900010E0512C912CFFE1F915D8F08B3279F057
:1003A00038F4803279F08332A1F4F92DF0612EC057
:1003B0008D3261F0803369F4292D21602DC0392DF3
:1003C0003260932E892D8460982E2AC0E92DE86032
:1003D00015C097FC2DC020ED280F2A3088F496FE1A
:1003E00006C03AE0139F200D1124122F19C08AE095
:1003F000589E200D1124522EE92DE0629E2E10C031
:100400008E3231F496FCCCC2F92DF0649F2E08C0D8
:100410008C3621F4292D2068922E02C0883641F4B2
:10042000F10193FD859193FF81911F018111B3CF5C
:100430009BEB980F933020F4992D9061805E07C05C
:100440009BE9980F933008F059C1992D9F7E96FF34
:1004500016E09F73992E853619F49064992E08C082
:10046000863621F4392F3068932E02C011111150B5
:1004700097FE07C01C3350F444244394410E27E0F8
:100480000BC0183038F027E017E005C027E09CE3E8
:10049000492E02C0212F412C560184E0A80EB11C28
:1004A000F6016081718182819381042DA301D9D2EB
:1004B0006C01F981FC87F0FF02C0F3FF06C091FCDC
:1004C00006C092FE06C000E205C00DE203C00BE2CA
:1004D00001C000E08C858C7019F0011143C280C20C
:1004E00097FE10C04C0CFC85F4FF04C08A81813358
:1004F00009F44A94141474F528E0241578F588E07A
:10050000482E2CC096FC2AC0812F90E08C159D05AA
:100510009CF03CEFC3163FEFD30674F0892D806842
:10052000982E0AC0E2E0F0E0EC0FFD1FE10FF11D94
:100530008081803319F411501111F4CF97FE0EC051
:1005400044244394410E812F90E0C816D9062CF420
:100550001C1904C04424439401C010E097FE06C057
:100560001C141D0434F4C601019605C085E090E01A
:1005700002C081E090E001110196112331F0212F9A
:1005800030E02F5F3F4F820F931F252D30E0821701
:10059000930714F4581A01C0512C892D897041F425
:1005A000552031F0B70180E290E087D35A94F8CF1C
:1005B000002321F0B701802F90E07FD393FC08C087
:1005C000552031F0B70180E390E077D35A94F8CF0B
:1005D00097FE4AC04601D7FE02C0812C912CC6016D
:1005E00088199909F301E80FF91FFE87ED87960135
:1005F00024193109388B2F87012F10E011950195AF
:1006000011093FEF8316930621F4B7018EE290E0C3
:1006100054D3C814D9044CF08F859889881599054E
:1006200024F4ED85FE85818101C080E3F1E08F1A1D
:1006300091082D853E852F5F3F4F3E872D87801681
:10064000910624F0B70190E038D3DBCFC814D90469
:1006500041F49A81963320F4953319F43C8534FFA4
:1006600081E3B70190E048C08A81813319F09C850D
:100670009F7E9C87B70190E020D3111105C094FCA8
:1006800016C085E690E015C0B7018EE290E015D364
:100690001E5F82E001E0080FF301E80FF11D808189
:1006A000B70190E00AD3802F0113F4CFE8CF85E49F
:1006B00090E0B70102D3D7FC06C0C114D10441F4C5
:1006C000EC85E4FF05C0D194C194D1088DE201C04E
:1006D0008BE2B70190E0F1D280E32AE0C216D104A8
:1006E0002CF08F5FFAE0CF1AD108F7CFB70190E076
:1006F000E4D2B701C601C096E0D249C1833631F0D9
:10070000833779F0833509F052C01FC0560132E0BB
:10071000A30EB11CF6018081898301E010E0630122
:1007200011C05601F2E0AF0EB11CF601C080D180BD
:1007300096FE03C0612F70E002C06FEF7FEFC6012D
:1007400073D28C01F92DFF7713C0560122E0A20E5F
:10075000B11CF601C080D18096FE03C0612F70E00D
:1007600002C06FEF7FEFC60154D28C01F92DF06803
:100770009F2EF3FD18C0852D90E00817190798F4F7
:10078000B70180E290E099D25A94F5CFF60197FC38
:10079000859197FE81916F01B70190E08ED2511043
:1007A0005A94015011090115110581F7F0C08436E2
:1007B00011F0893659F5560197FE09C024E0A20EC2
:1007C000B11CF60160817181828193810AC0F2E0DF
:1007D000AF0EB11CF60160817181072E000C880BF1
:1007E000990BF92DFF769F2E97FF09C09095809564
:1007F000709561957F4F8F4F9F4FF0689F2E2AE035
:1008000030E0A301D9D2C82EC6183EC0092D8537C5
:1008100021F40F7E2AE030E01DC0097F8F3691F071
:1008200018F4883559F0BCC0803719F0883711F0BA
:10083000B7C0006104FF09C0046007C094FE08C08F
:10084000066006C028E030E005C020E130E002C0CC
:1008500020E132E0560107FF09C084E0A80EB11C78
:10086000F601608171818281938108C0F2E0AF0E50
:10087000B11CF6016081718180E090E0A3019CD2FF
:10088000C82EC6180F77902E96FE0BC0092D0E7F2E
:10089000C11650F494FE0AC092FC08C0092D0E7EC9
:1008A00005C0DC2C092D03C0DC2C01C0D12E04FFB7
:1008B0000DC0FE01EC0DF11D8081803311F4097E25
:1008C00009C002FF06C0D394D39404C0802F867859
:1008D00009F0D39403FD10C000FF06C01C2DD514F1
:1008E00078F4150D1D190CC0D51450F4B70180E231
:1008F00090E0E3D1D394F8CFD51410F45D1801C083
:10090000512C04FF0FC0B70180E390E0D6D102FF65
:1009100016C001FD03C088E790E002C088E590E0C2
:10092000B7010CC0802F867851F001FF02C08BE226
:1009300001C080E207FD8DE2B70190E0BED1C11693
:1009400030F4B70180E390E0B8D11150F8CFCA94E9
:10095000F301EC0DF11D8081B70190E0AED1C11023
:10096000F6CF15C0F4E0F51550F584E0581A93FE63
:100970001EC0011125C02C8523FF27C00AE310E00B
:10098000392D3071932EF8018491811121C05520A9
:1009900009F4FCCCB70180E290E08FD15A94F7CFF4
:1009A000F7018681978123C08FEF9FEF20C0B701A9
:1009B00080E290E082D15A945110F9CFDACF512CD5
:1009C000B701802F90E079D1D6CF0EE310E0D8CFD9
:1009D00091108052B70190E070D10F5F1F4FD3CFBD
:1009E00023E0251510F483E0C1CF512CC4CF6096CD
:1009F000E2E11CC02F923F924F925F926F927F92E2
:100A00008F929F92AF92BF92CF92DF92EF92FF921E
:100A10000F931F93CF93DF93CDB7DEB7CA1BDB0BCA
:100A20000FB6F894DEBF0FBECDBF09942A8839886F
:100A300048885F846E847D848C849B84AA84B98476
:100A4000C884DF80EE80FD800C811B81AA81B98182
:100A5000CE0FD11D0FB6F894DEBF0FBECDBFED0196
:100A60000895283008F027E03327DA01990F311D67
:100A700087FD916000966105710539F432602E5F43
:100A80003D9330E32A95E1F708959F3F30F0803899
:100A90007105610509F03C5F3C5F3D93913008F0C2
:100AA0008068911DDF93CF931F930F93FF92EF9276
:100AB000192F987F9695E92F96959695E90FFF2720
:100AC000E456FF4F99273327EE24FF24A701E701BF
:100AD00005900894079428F4360FE71EF81E491F66
:100AE000511D660F771F881F991F0694A1F7059067
:100AF000079428F4E70EF81E491F561FC11D770FF3
:100B0000881F991F661F0694A1F70590079428F483
:100B1000F80E491F561FC71FD11D880F991F661F4A
:100B2000771F0694A1F70590079420F4490F561FEC
:100B3000C71FD81F990F661F771F881F0694A9F734
:100B400084911095177041F0D695C79557954795A4
:100B5000F794E7941A95C1F7E2E4F0E068941590F1
:100B6000159135916591959105907FE27395E11806
:100B7000F10A430B560BC90BD009C0F7E10CF11E6B
:100B8000431F561FC91FD01D7EF4703311F48A9580
:100B9000E6CFE894015030F0080F0AF4002702175E
:100BA00008F4202F2395022F7A3328F079E37D93E0
:100BB0002A95E9F710C07D932A9589F606949795B2
:100BC0006795379517951794E118F10A430B560B63
:100BD000C90BD00998F023957E9173957A3308F06C
:100BE00070E37C932013B8F77E9170617D9330F0B1
:100BF000839571E37D9370E32A95E1F71124EF90DB
:100C0000FF900F911F91CF91DF91992787FD9095CC
:100C10000895FC010590615070400110D8F780954F
:100C200090958E0F9F1F0895FC01615070400190B8
:100C30000110D8F7809590958E0F9F1F0895CF9340
:100C4000DF93EC012B8120FF33C026FF0AC02F7BEE
:100C50002B838E819F8101969F838E838A8190E072
:100C600029C022FF0FC0E881F9818081082E000C85
:100C7000990B009719F420622B831AC03196F983DF
:100C8000E8830EC0EA85FB85099597FF09C02B8193
:100C9000019611F080E201C080E1822B8B8308C0B5
:100CA0002E813F812F5F3F4F3F832E83992702C0C4
:100CB0008FEF9FEFDF91CF9108950F931F93CF9305
:100CC000DF93FB01238121FD03C08FEF9FEF2CC039
:100CD00022FF16C046815781248135814217530770
:100CE00044F4A081B1819D012F5F3F4F3183208368
:100CF0008C93268137812F5F3F4F3783268314C023
:100D00008B01EC01FB010084F185E02D0995892B15
:100D1000E1F6D80116968D919C911797019617963A
:100D20009C938E931697CE01DF91CF911F910F91D7
:100D30000895A0E0B0E0EEE9F6E06CCEAE014B5FC6
:100D40005F4FFA0161917191AF018091980190918B
:100D50009901F2DAE2E07ACE0F931F93CF93DF93FB
:100D6000E0919801F0919901238121FF1BC08C0132
:100D7000D0E0C0E0F80181918F01609198017091FD
:100D80009901DB011896ED91FC911997882331F0B8
:100D90000995892B79F3DFEFCFEFECCF8AE0099546
:100DA000892B19F08FEF9FEF02C08D2F9C2FDF91C1
:100DB000CF911F910F910895FA01AA27283051F180
:100DC000203181F1E8946F936E7F6E5F7F4F8F4F7C
:100DD0009F4FAF4FB1E03ED0B4E03CD0670F781FDB
:100DE000891F9A1FA11D680F791F8A1F911DA11DC0
:100DF0006A0F711D811D911DA11D20D009F46894F9
:100E00003F912AE0269F11243019305D3193DEF6A0
:100E1000CF010895462F4770405D4193B3E00FD056
:100E2000C9F7F6CF462F4F70405D4A3318F0495D41
:100E300031FD4052419302D0A9F7EACFB4E0A69524
:100E40009795879577956795BA95C9F70097610546
:100E5000710508959B01AC010A2E0694579547959C
:100E600037952795BA95C9F7620F731F841F951F91
:080E7000A01D0895F894FFCFC6
:100E78000000000300000000BA00C0000000456E3A
:100E880074657220646967697428302D39290D00EA
:100E98004D656E753A200D0045786974202D2065E2
:100EA8006E7465722027712700303A20616C6C20BF
:100EB8004C4F570D00313A20504230204C4F572F9D
:100EC800484947480D00323A20504231204C4F578C
:100ED8002F484947480D00333A20504232204C4FA2
:100EE800572F484947480D00343A20504233204C88
:100EF8004F572F484947480D00353A205042342073
:100F08004C4F572F484947480D00363A2050423534
:100F1800204C4F572F484947480D00373A20504238
:100F280036204C4F572F484947480D00383A205033
:100F38004237204C4F572F484947480D00393A202F
:100F4800616C6C20484947480D00596F7520656EE3
:100F5800746572656420300D00596F7520656E7474
:100F68006572656420310D00596F7520656E746572
:100F780072656420390D004552524F522120506C41
:100F8800656173652C20656E746572206469676994
:100F98007420696E207468652072616E6765203000
:060FA8002E2E2E390D0073
:00000001FF
