S0140000355F375345475F61727261792E73726563E8
S113000012C02CC02BC02AC029C028C027C026C0BB
S113001025C024C023C022C021C020C01FC01EC0D0
S11300201DC01CC01BC011241FBECFE5D4E0DEBF21
S1130030CDBF10E0A0E6B0E0E2E0F1E002C0059040
S11300400D92A437B107D9F720E0A4E7B0E001C0CE
S11300501D92A637B207E1F702D051C0D1CF8FEF7E
S113006081BB17BA83E088BB86B38230E1F4809108
S113007074009091750001969093750080937400BC
S11300802FE58AEE90E0215080409040E1F700C0D7
S1130090000080917400909175000A9724F01092EA
S11300A075001092740086B38130F1F4809174006D
S11300B090917500019790937500809374002FE5DB
S11300C08AEE90E0215080409040E1F700C00000AB
S11300D08091740090917500992334F489E090E044
S11300E09093750080937400E0917400F091750012
S11300F0EE0FFF1FE05AFF4F808182BBB5CFF8940B
S1050100FFCF2B
S11301023F0006005B004F0066006D007D000700A3
S10701127F006F00F7
S9030000FC
