:1000000012C02CC02BC02AC029C028C027C026C0BF
:1000100025C025C023C022C021C020C01FC01EC0D3
:100020001DC01CC01BC011241FBECFE5D4E0DEBF25
:10003000CDBF10E0A0E6B0E0ECE4F5E002C0059032
:100040000D92A437B107D9F720E0A4E7B0E001C0D2
:100050001D92A638B207E1F70DD176C2D1CF1F921B
:100060000F920FB60F9211248F939F93EF93FF93EC
:1000700080917C0090917D008130910589F485B359
:100080008E6085BB85B38E7F85BBE0918400F09147
:100090008500EE0FFF1FE05AFF4F808182BB3AC000
:1000A0008230910589F485B38D6085BB85B38D7FE2
:1000B00085BBE0918200F0918300EE0FFF1FE05AB4
:1000C000FF4F808182BB26C08330910589F485B3C0
:1000D0008B6085BB85B38B7F85BBE0918000F09101
:1000E0008100EE0FFF1FE05AFF4F808182BB12C0DC
:1000F000049781F485B3876085BB85B3877F85BB13
:10010000E0917E00F0917F00EE0FFF1FE05AFF4F5D
:10011000808182BB80917C0090917D0001969093BC
:100120007D0080937C00059734F081E090E090930F
:100130007D0080937C00FF91EF919F918F910F90B4
:100140000FBE0F901F901895CF93DF93AC01EC0179
:10015000D695C795D695C795D695C7959E01A5EC1A
:10016000B0E2E6D1FC01F295E295EF70EF27FF7067
:10017000EF27F0938500E093840028EE33E0E29FC0
:10018000C001E39F900DF29F900D11249A01281B4E
:10019000390B3695279536952795ABE7B4E1C8D14D
:1001A0009695879590938300809382009A01369567
:1001B000279536952795BCD19C013695279564E601
:1001C000629FC001639F900D11249A01281B390B77
:1001D000ADECBCECADD196958795969587959695A7
:1001E000879590938100809380009A01A1D1969584
:1001F000879596958795969587959C01220F331F35
:10020000880F991F880F991F880F991F820F931FBE
:100210009A01281B390B30937F0020937E00DF91D9
:10022000CF91089587B3846287BB88B3846088BB0D
:1002300087B38F7E87BB8DB180648DB98DB18061AE
:100240008DB98EB18E7F8EB98DB18D7F8DB98DB107
:1002500081608DB98DB1877F8DB98DB184608DB985
:100260008DB18F7D8DB908958FEF8FB9779BFECFBC
:100270008FB108958FEF81BB12BA84B38F6084BBB6
:1002800085B38F6085BB82E083BF12BE89B7816072
:1002900089BFC8DF789488B38B7F88BBE5DF809304
:1002A0007B00E2DF80937A0088B3846088BB609132
:1002B0007B0080E2689FB001112480917A008695CE
:1002C00086958695682B709379006093780080E01E
:1002D00090E03DD020E030E040E85EE39ED06093C7
:1002E000740070937500809376009093770003D02C
:1002F000CB012ADFD0CF70D088F09F5790F0B92F74
:100300009927B751A0F0D1F0660F771F881F991F6A
:100310001AF0BA95C9F712C0B13081F077D0B1E0C8
:10032000089574C0672F782F8827B85F39F0B93FD8
:10033000CCF3869577956795B395D9F73EF490956C
:100340008095709561957F4F8F4F9F4F0895E894EA
:1003500009C097FB3EF490958095709561957F4F0D
:100360008F4F9F4F9923A9F0F92F96E9BB279395BB
:10037000F695879577956795B795F111F8CFFAF4CB
:10038000BB0F11F460FF1BC06F5F7F4F8F4F9F4FFC
:1003900016C0882311F096E911C0772321F09EE85A
:1003A000872F762F05C0662371F096E8862F70E0C0
:1003B00060E02AF09A95660F771F881FDAF7880F9A
:1003C0009695879597F9089557FD9058440F551FB6
:1003D00059F05F3F71F04795880F97FB991F61F0C7
:1003E0009F3F79F087950895121613061406551F3E
:1003F000F2CF4695F1DF08C0161617061806991FAA
:10040000F1CF86957105610508940895E894BB279E
:1004100066277727CB0197F908950BD078C069D06C
:1004200028F06ED018F0952309F05AC05FC011244F
:10043000EECFCADFA0F3959FD1F3950F50E0551F83
:10044000629FF001729FBB27F00DB11D639FAA2729
:10045000F00DB11DAA1F649F6627B00DA11D661F78
:10046000829F2227B00DA11D621F739FB00DA11D99
:10047000621F839FA00D611D221F749F3327A00D53
:10048000611D231F849F600D211D822F762F6A2FEF
:1004900011249F5750408AF0E1F088234AF0EE0F74
:1004A000FF1FBB1F661F771F881F91505040A9F781
:1004B0009E3F510570F014C0AACF5F3FECF3983E09
:1004C000DCF3869577956795B795F795E7959F5FE8
:1004D000C1F7FE2B880F911D9695879597F9089582
:1004E00097F99F6780E870E060E008959FEF80ECE7
:1004F000089500240A94161617061806090608958A
:1005000000240A9412161306140605060895092EEF
:100510000394000C11F4882352F0BB0F40F4BF2B5E
:1005200011F460FF04C06F5F7F4F8F4F9F4F08959E
:10053000A29FB001B39FC001A39F01D0B29F700DD5
:0C054000811D1124911D0895F894FFCF37
:10054C003F0006005B004F0066006D007D00070059
:04055C007F006F00AD
:00000001FF
