:1000000012C019C018C017C016C015C014C013C044
:1000100012C011C010C00FC00EC00DC00CC00BC06C
:100020000AC009C008C011241FBECFE5D4E0DEBF5E
:10003000CDBF02D07DC0E4CF8FEF81BB8FE382BB09
:100040002FE986E891E0215080409040E1F700C020
:10005000000086E082BB2FE986E891E021508040D5
:100060009040E1F700C000008BE582BB2FE986E8F5
:1000700091E0215080409040E1F700C000008FE403
:1000800082BB2FE986E891E0215080409040E1F763
:1000900000C0000086E682BB2FE986E891E021508F
:1000A00080409040E1F700C000008DE682BB2FE960
:1000B00086E891E0215080409040E1F700C00000C8
:1000C0008DE782BB2FE986E891E021508040904087
:1000D000E1F700C0000087E082BB2FE986E891E0ED
:1000E000215080409040E1F700C000008FE782BBC4
:1000F0002FE986E891E0215080409040E1F700C070
:1001000000008FE682BB2FE986E891E02150804015
:100110009040E1F700C0000080E882BB2FE986E84C
:1001200091E0215080409040E1F700C0000086CF70
:04013000F894FFCF71
:00000001FF
