:1000000012C02CC02BC02AC029C028C027C026C0BF
:1000100025C046C023C022C021C020C01FC01EC0B2
:100020001DC01CC01BC011241FBECFE5D4E0DEBF25
:10003000CDBF10E0A0E6B0E0ECE2F2E002C0059037
:100040000D92A837B107D9F720E0A8E7B0E001C0CA
:100050001D92A038B207E1F778D0E6C0D1CFCF9398
:10006000DF939C0168EE73E0B8D0E8E7F0E07183BD
:100070006083C4E6D0E0BE01B0D073836283C9015F
:10008000BE01ABD0CAE0D0E0BE01A7D075836483C7
:10009000C901BE01A2D097838683DF91CF910895D5
:1000A0001F920F920FB60F9211248F93EF93FF932D
:1000B00080916200813059F488BBE0917800F09122
:1000C0007900EE0FFF1FED59FF4F808182BB8091B9
:1000D0006200823059F488BBE0917A00F0917B0095
:1000E000EE0FFF1FED59FF4F808182BB80916200B0
:1000F000833061F484E088BBE0917C00F0917D0066
:10010000EE0FFF1FED59FF4F808182BB809162008F
:10011000843071F488E088BBE0917E00F0917F002C
:10012000EE0FFF1FED59FF4F808182BB10926200DE
:10013000809162008F5F80936200FF91EF918F91B9
:100140000F900FBE0F901F9018958FEF81BB9FE00F
:1001500097BB84B3806384BB84B38F7C84BB12BAA7
:1001600098BB85B3806385BB83B7836083BF83B748
:100170008B7F83BF89B7816089BF12BE78948091DD
:100180006000909161006BDF9C9912C080916000CB
:1001900090916100019690936100809360002FE53B
:1001A0008AEE90E0215080409040E1F700C00000CE
:1001B0009D99E5CF809160009091610001979093A7
:1001C0006100809360002FE58AEE90E0215080402E
:1001D0009040E1F700C00000D2CF97FB072E16F445
:1001E000009406D077FD08D00BD007FC05D03EF474
:1001F000909581959F4F0895709561957F4F0895D3
:10020000AA1BBB1B51E107C0AA1FBB1FA617B7073C
:1002100010F0A61BB70B881F991F5A95A9F7809558
:0C0220009095BC01CD010895F894FFCF2B
:10022C00D711013F0006005B004F0066006D007D9A
:08023C000007007F006F0000C5
:00000001FF
