S02A000031375F50574D5F50686173655F616E645F4672657175656E63795F436F72726563742E737265631B
S113000012C019C018C017C016C015C014C013C040
S113001012C011C010C00FC00EC00DC00CC00BC068
S11300200AC009C008C011241FBECFE5D4E0DEBF5A
S1130030CDBF02D0BAC0E4CF8FB580688FBD8FB575
S11300408F7B8FBD8FB58E7F8FBD8FB58D7F8FBD1D
S11300508EB5877F8EBD8EB580618EBD8EB5826074
S11300608EBD8EB58E7F8EBD8EB58B7F8EBD84EF9B
S113007091E09BBD8ABD88EE93E097BD86BD87B3B2
S1130080866087BB88B3897F88BB14BA8FE385BB3E
S1130090989914C08FE493EC0197F1F700C0000025
S11300A08AB59BB50A969BBD8ABD8AB59BB5853F2B
S11300B0934020F08FEF91E09BBD8ABD999913C0C6
S11300C08FE493EC0197F1F700C000008AB59BB56B
S11300D00A979BBD8ABD8AB59BB50B9720F48FEF19
S11300E091E09BBD8ABD9A9914C08FE493EC01976B
S11300F0F1F700C0000086B597B50A9697BD86BD96
S113010086B597B58C3D954020F08EE591E097BD7E
S113011086BD9B9913C08FE493EC0197F1F700C05F
S1130120000086B597B50A9797BD86BD86B597B585
S11301300B9720F48EE591E097BD86BD9C9919C07C
S11301408FE493EC0197F1F700C0000086B597B5F2
S11301500A9697BD86BD8AB59BB544969BBD8ABD5C
S113016086B597B58C3D954020F08EE591E097BD1E
S113017086BD9D998DCF8FE493EC0197F1F700C074
S1130180000086B597B50A9797BD86BD8AB59BB51D
S113019044979BBD8ABD86B597B50B9708F078CF79
S11101A08EE591E097BD86BD73CFF894FFCF36
S9030000FC
