:1000000012C02CC02BC02AC029C028C027C026C0BF
:1000100025C024C023C022C021C020C01FC01EC0D4
:100020001DC01CC01BC011241FBECFE5D4E0DEBF25
:10003000CDBF10E0A0E6B0E0E8E5F4E002C0059036
:100040000D92A437B107D9F720E0A4E7B0E001C0D2
:100050001D92A537B207E1F7C9D1FCC1D1CF82E02B
:1000600080B981B18C7F81B9089584EA86BF06B6D4
:1000700007FEFDCF089584E986BF089583B984E81B
:1000800086BF06B607FEFDCF089584EC86BF06B690
:1000900007FEFDCF83B10895CF93C82FE6DF86E436
:1000A000EDDF8C2FEBDFE7DFCF91089582BB92B3BA
:1000B0009B7F92BB92B3986092BB90E19A95F1F7C7
:1000C00000C092B3977F92BB90E19A95F1F700C080
:1000D0008295807F82BB82B38B7F82BB82B3886034
:1000E00082BB80E18A95F1F700C082B3877F82BB33
:1000F00090E19A95F1F700C00895CF93C82F8093AF
:100100007400CADF809174008B7F80937400C4DF19
:1001100080917400886080937400BEDF80E18A95CE
:10012000F1F700C080917400877F80937400B4DF82
:1001300080E18A95F1F700C08C2F8295807F8093B3
:100140007400AADF809174008B7F80937400A4DF19
:10015000809174008860809374009EDF80E18A95AE
:10016000F1F700C080917400877F8093740094DF62
:1001700080E18A95F1F700C0CF91089582BB92B3D8
:10018000946092BB92B3986092BB90E19A95F1F71C
:1001900000C092B3977F92BB90E19A95F1F700C0AF
:1001A0008295807F82BB82B3846082BB82B3886089
:1001B00082BB80E18A95F1F700C082B3877F82BB62
:1001C00090E19A95F1F700C00895CF93C82F8093DE
:1001D000740062DF809174008460809374005CDF3F
:1001E0008091740088608093740056DF80E18A9566
:1001F000F1F700C080917400877F809374004CDF1A
:1002000080E18A95F1F700C08C2F8295807F8093E2
:10021000740042DF809174008460809374003CDF3E
:100220008091740088608093740036DF80E18A9545
:10023000F1F700C080917400877F809374002CDFF9
:1002400080E18A95F1F700C0CF91089585EA9EE09C
:100250000197F1F700C0000080E328DF81EE94E011
:100260000197F1F700C0000080E320DF91E29A954A
:10027000F1F7000080E31ADF89EF90E00197F1F7D2
:1002800000C0000082E012DF83EF91E00197F1F7F8
:1002900000C0000088E20ADF89EF90E00197F1F7E3
:1002A00000C000008CE002DF89EF90E00197F1F7D9
:1002B00000C0000081E0FADE83EF91E00197F1F7E2
:1002C00000C0000086E0F2DE89EF90E00197F1F7D0
:1002D00000C00000089585EA9EE00197F1F700C094
:1002E000000080E30ADF81EE94E00197F1F700C09F
:1002F000000080E302DF91E29A95F1F7000080E3CD
:10030000FCDE89EF90E00197F1F700C0000082E089
:10031000F4DE83EF91E00197F1F700C0000088E27E
:10032000ECDE89EF90E00197F1F700C000008FE06C
:10033000E4DE89EF90E00197F1F700C0000081E072
:10034000DCDE83EF91E00197F1F700C0000086E06A
:10035000D4DE89EF90E00197F1F700C00000089526
:100360008068A4DE08958068C8DE0895805C806897
:100370009DDE0895805C8068C0DE08951F93CF9352
:10038000DF93EC0110E006C0FE01E80FF91F808149
:10039000F5DE1F5F812F90E0FE0101900020E9F75C
:1003A0003197EC1BFD0B8E179F0770F3DF91CF91F8
:1003B0001F9108951F93CF93DF93EC0110E006C0C7
:1003C000FE01E80FF91F808100DF1F5F812F90E0A1
:1003D000FE0101900020E9F73197EC1BFD0B8E1711
:1003E0009F0770F3DF91CF911F9108958FEF87BB27
:1003F00036DE3BDE80E442DE8BE940DE3CDE35DE8D
:1004000083E43CDE42DE88BB36DE2FDE83E436DE6C
:100410008CEF81BB12BA1ADF86E0A2DF80E690E0A3
:10042000ADDF82E0A3DF86E690E0A8DF54DF86E060
:100430009ADF80E690E0BEDF82E09CDF86E690E017
:10044000B9DF87EA91E60197F1F700C000001DDEF1
:0804500088BBF7CFF894FFCF41
:100458002121212121005072696E74207374726900
:040468006E670000BB
:00000001FF
